:020000040800F2
:1000000000500020993A00083B3500083D350008B3
:100010003F35000841350008433500080000000066
:10002000000000000000000000000000714F000808
:100030004535000800000000015000084550000848
:10004000E13A0008E13A0008E13A0008E13A000824
:10005000E13A0008E13A0008E13A0008E13A000814
:10006000E13A0008E13A0008E13A0008E13A000804
:10007000E13A000849350008E13A0008E13A000891
:10008000E13A0008E13A0008E13A0008E13A0008E4
:10009000E13A0008E13A0008E13A0008E13A0008D4
:1000A000E13A0008E13A0008E13A0008E13A0008C4
:1000B00055350008E13A0008E13A0008E13A000845
:1000C000E13A0008E13A0008E13A0008E13A0008A4
:1000D000E13A0008E13A0008E13A00086135000819
:1000E000E13A0008E13A0008E13A000800000000A7
:1000F0000000000000000000000000000000000000
:0C01000000000000000000005FF808F1A3
:1001100010B5054C237833B9044B13B10448AFF341
:1001200000800123237010BDA0000020000000000B
:100130009C73000808B5034B1BB103490348AFF398
:10014000008008BD00000000A40000209C7300088F
:10015000034613F8012B002AFBD1181A0138704707
:1001600070470000036A026A70B522F00102026261
:10017000446882690D6822F073022A438D6823F077
:1001800002032B430A4DA8420BD1CD6823F008038C
:100190002B4324F44074D1E90556354323F004037E
:1001A0002C43446082614A684263036270BD00BFB1
:1001B000002C0140036A026A70B522F48072026268
:1001C0004468C2690D6822F073022A438D6823F4E3
:1001D000007343EA05230B4DA8420DD1CD6823F4EB
:1001E000006343EA052324F44054D1E9055635431E
:1001F00023F4806344EA05144460C2614A68C26320
:10020000036270BD002C0140036A026A30B522F41B
:10021000805202624468C2690D6822F4E64242EAF2
:1002200005228D6823F4005343EA0533064DA842A6
:1002300002BF4D6924F4804444EA85144460C261DD
:100240004A680264036230BD002C01407047000020
:1002500090F83D30012B20D1022380F83D30036817
:10026000DA6842F00102DA600D4A93420AD0B3F133
:10027000804F07D0A2F59432934203D002F58062FA
:10028000934204D19A6802F00702062A03D01A6842
:1002900042F001021A60002070470120704700BF41
:1002A000002C0140022341F2111210B580F83D30BC
:1002B00003680446196A114208D140F24442196A9F
:1002C000114202BF1A6822F001021A60204603F0B0
:1002D0008FFA002084F8460084F83C0084F83E0041
:1002E00084F83F0084F8400084F8410084F842001C
:1002F00084F8430084F8440084F8450084F83D0005
:1003000010BD7047704770477047036870B5DD686F
:100310001E690446B1070DD5AA070BD56FF002027E
:100320001A61012202779B699B0769D0FFF7EAFFF8
:1003300000232377710710D56A070ED56FF00402EA
:10034000236820461A61022222779B6913F4407FBA
:100350005CD0FFF7D7FF0023237733070FD528079B
:100360000DD56FF00802236820461A610422227717
:10037000DB69990750D0FFF7C5FF00232377F2060A
:1003800010D5EB060ED56FF01002236820461A61D7
:1003900008222277DB6913F4407F43D0FFF7B2FFD6
:1003A00000232377F00708D5E90706D56FF001028F
:1003B000236820461A6103F0B7F8320608D52B06E9
:1003C00006D56FF08002236820461A6100F095F987
:1003D000700608D5690606D56FF0400223682046EE
:1003E0001A61FFF791FFB20622D5AB0620D56FF058
:1003F000200223682046BDE870401A6100F07CB9F5
:10040000FFF77FFF2046FFF77EFF91E7FFF779FFB9
:100410002046FFF778FF9EE7FFF773FF2046FFF7C0
:1004200072FFAAE7FFF76DFF2046FFF76CFFB7E703
:1004300070BD0000174A036890420AD0B0F1804FA7
:1004400007D0A2F59432904203D002F58062904228
:1004500007D14A6823F070031343CA6823F440733A
:1004600013434A6923F08003134303608B68C3621C
:100470000B688362074B984204BF0B690363012337
:1004800043610369DB0742BF036923F00103036192
:10049000704700BF002C014010B5044630B390F8FF
:1004A0003D3003F0FF021BB980F83C20FFF7CEFE81
:1004B0000223206884F83D30211DFFF7BBFF012394
:1004C000002084F8463084F83E3084F83F3084F8C9
:1004D000403084F8413084F8423084F8433084F866
:1004E000443084F8453084F83D3010BD0120FCE7ED
:1004F00010B5044630B390F83D3003F0FF021BB94D
:1005000080F83C2003F038F90223206884F83D305D
:10051000211DFFF78FFF0123002084F8463084F867
:100520003E3084F83F3084F8403084F8413084F81D
:10053000423084F8433084F8443084F8453084F8FD
:100540003D3010BD0120FCE7036A026A70B522F05D
:1005500010020262446882690D6822F4E64242EAAF
:1005600005228D6823F0200343EA05130B4DA842B2
:100570000DD1CD6823F0800343EA051324F44064D1
:10058000D1E90556354323F0400344EA850444602D
:1005900082614A688263036270BD00BF002C014023
:1005A00038B590F83C300446012B4FD00120082A82
:1005B00084F83C003AD006D8BAB1042A26D00023E9
:1005C00084F83C3038BD0C2AF9D12068FFF71CFEB6
:1005D000C3690A6943F40063C361C36923F4806398
:1005E000C361C36943EA02232EE02068FFF7BAFD26
:1005F00083690A6943F008038361836923F0040374
:1006000083618369134383610020D8E72068FFF783
:100610009BFF83690A6943F400638361836923F460
:1006200080638361836943EA0223ECE72068FFF774
:10063000C1FDC3690A6943F00803C361C36923F0BC
:100640000403C361C3691343C361DDE70220B9E753
:1006500030B590F83C300246012B4FF0020022D01A
:10066000136882F83D005C680D6824F070042C4328
:1006700098685C600C4CA3420AD0B3F1804F07D05D
:10068000A4F59434A34203D004F58064A34204D1BA
:10069000496820F08000014399600123002082F81E
:1006A0003D3082F83C0030BD002C014090F83C30D9
:1006B0000246012B1ED0CB68886823F440730343A5
:1006C000486823F480630343086823F4006303430A
:1006D000086923F480530343486923F40053034318
:1006E0000020C96923F480430B4311684B6482F8EE
:1006F0003C0070470220704770477047F7B50026EE
:1007000004460D46019600F0F1FA236807469A6800
:10071000D10508D50120A36A84F8246043F02003A2
:10072000A36203B0F0BD5A68D20503D4DB6A13F4A8
:10073000700F3DD03D4B02201E6800F071FE236813
:100740003B4A1969B6FBF0F611423A4A51D1D868D2
:10075000394908424DD1196911425BD1DA68374BEA
:100760001A420CBF142329235E43019BB34223D2B8
:100770006A1C04D0002D53D1019BB3420AD3019BC4
:1007800001330193F1E76E1C13D065B923681B6830
:1007900098070DD4A36A032043F00403A362002347
:1007A00084F82430BDE700F0A1FAC01BA842EDD8C0
:1007B000226813689907E6D56FF012032268136068
:1007C000A36A43F40073A362936803F46023B3F550
:1007D000602F0CD1237B53B9A36A23F48073A362E7
:1007E000A36ADB0403D4A36A43F00103A3620020DD
:1007F00097E71969114203D1D968104A11420BD009
:1008000019690F4A114209D1DB6813420CBF542306
:10081000FC23A9E72923A7E75423A5E7FC23A3E7A3
:1008200000F064FAC01BA842A6D8A8E70000002088
:100830002449922492244912244992009224490086
:10084000499224000368D86C70470000002373B5F8
:10085000019390F824300446012B6CD0012380F8DA
:1008600024304D680268062D086805EB850322D800
:100870001F26556B053B9E4025EA060500FA03F34B
:100880002B43536309288B6800EB40054FF00701A9
:1008900029D9D6681E3DA94026EA0101AB400B4389
:1008A000D360A0F11003012B25D90020002384F888
:1008B000243002B070BD0C2D4FF01F0509D8166B07
:1008C000233B9D4026EA050500FA03F32B431363FF
:1008D000D8E7D66A413B9D4026EA050500FA03F3B6
:1008E0002B43D362CEE71069A94020EA0101AB4057
:1008F0000B431361D9E7114B9A4216D193681B023F
:10090000D3D49368102843F400039360CDD10C4BEB
:100910000C4A1B68B3FBF2F30A2253430193019B79
:10092000002BC2D0019B013BF8E7A36A012043F0F2
:100930002003A362BAE70220BBE700BF0024014006
:100940000000002040420F00002337B501930368E8
:1009500004469A68D20702D5002003B030BD9A68D9
:1009600042F001029A60144B144A1B68B3FBF2F385
:100970000193019BE3B900F0B9F9054623689B6830
:10098000DB07E9D400F0B2F9401B0228F6D923684E
:100990009B6813F00103F1D1A26A012042F010021A
:1009A000A262E26A84F8243042F00102E262D4E7F3
:1009B000019B013BDCE700BF0000002040420F002C
:1009C00010B590F824300446012B54D0012380F850
:1009D0002430FFF7B9FF002849D1A36A274A23F43E
:1009E000407323F0010343F48073A36223689342AE
:1009F00004D123494A6812F4702F2ED1A26A22F43E
:100A00008012A2625A68520541BFA26A22F4405283
:100A100042F48052A262A26A12F480521CBFE26ABF
:100A200022F00602E262002284F824206FF0020223
:100A30001A609A6802F46022B2F5602F13D10F4A4F
:100A4000934205D1A2F58062526812F4702F0AD148
:100A50009A6842F4A0029A6010BDA26A42F4801221
:100A6000A2624A68CFE79A6842F48012F3E7002353
:100A700084F82430F0E70220EEE700BF00280140B0
:100A80000024014038B5036804469A68D10701D4B0
:100A9000002038BD9A6822F001029A6000F026F921
:100AA000054623689B68DB07F2D500F01FF9401B61
:100AB0000228F6D923689B68DA07F2D5A36A0120D9
:100AC00043F01003A362E36A43F00103E362E0E74B
:100AD000F8B5044600286DD0836A23B9C36280F854
:100AE000243002F065FD2046FFF7CCFFA36A13F027
:100AF000100361D100285FD1A26A616822F4885294
:100B000022F0020242F00202E569A668A262227B9C
:100B10002943B6F5807F41EA420136D0771E7D42F7
:100B20007D412D02277D012F06D182BBA269013AAA
:100B300045EA423242F400652268B6F5807F576884
:100B400027F4694745EA0705556097681D4D05EA92
:100B5000070545EA0105956001D0012E02D1236900
:100B6000013B1B05D56A25F470052B43D3629268BF
:100B7000154B1340994213D10023E362A36A23F07B
:100B8000030343F00103A362F8BD3546CAE7A26A36
:100B900042F02002A262E26A42F00102E262CBE786
:100BA000A36A23F0120343F01003A362E36A43F045
:100BB0000103E3620120E7E7A36A43F01003A362A5
:100BC000F8E700BFFDF7E1FFFE0E1FFF38B5044652
:100BD000002850D0836A43F002038362FFF752FF7C
:100BE0000546002842D16FF01F02236820461A6094
:100BF0005968224A0A405A609968214A0A409A6014
:100C0000DA6802F07F42DA601A6902F040421A6143
:100C100059691C4A11405961996911409961D96912
:100C20001140D961196A11401962596A114059621B
:100C3000996A0A409A62DA6A134902F07F42DA62DC
:100C4000DA6A02F07F42DA621A6B02F040421A63FB
:100C50005A6B02F040425A639A6B0A409A639A6B4D
:100C60000A409A6302F0F6FCE562A562002384F86C
:100C70002430284638BD0125FBE700BF00003FFFB8
:100C8000F00601FF00F0FFFF0000C0FF704700000A
:100C900010B54FF0FF320024044B1A611C61DA607A
:100CA000DC60FFF7F3FF204610BD00BF00100240DC
:100CB000074A08B51368032043F01003136000F0DF
:100CC000F7FE0F2002F044FE02F050FC002008BDA9
:100CD00000200240034A044B11681B780B44136048
:100CE000704700BFBC00002004000020014B1868C2
:100CF000704700BFBC00002038B50446FFF7F6FF80
:100D00000546631C1EBF044B1B78E418FFF7EEFF7B
:100D1000431BA342FAD338BD0400002070B5FFF78F
:100D2000E5FF05462F4C236843F001032360236849
:100D30009B073BD5236841F2883623F0F80343F044
:100D400080032360FFF7D2FF0023054663606368DA
:100D500013F00C0F32D1244B244A1A60244B18682C
:100D600002F0F6FD054600283AD1FFF7BFFF064620
:100D7000236823F080732360236813F0007323D16A
:100D80006360FFF7B3FF0646236823F41023236054
:100D9000236813F400331DD1226822F480222260DC
:100DA000626A42F080726262A36005E0FFF79EFF14
:100DB000401B0228BBD90325284670BDFFF796FFCC
:100DC000401BB042C3D9F6E7FFF790FF801B022813
:100DD000D2D9F0E7FFF78AFF801B6428D8D9EAE769
:100DE0000125E9E7001002400000002000127A000F
:100DF000080000202DE9F341054638B30368DB07FE
:100E000010D42B689F075ED42B68190700F19580DA
:100E10002B685A0700F1C180EB69002B40F02C8150
:100E2000002029E0904C636803F00C03042B07D0EA
:100E3000636803F00C03082B0AD16368DE0307D54F
:100E400023689C03DDD56B68002BDAD1012013E009
:100E50006B68B3F5803F12D1236843F4803323607D
:100E6000FFF744FF064623689803CAD4FFF73EFF06
:100E7000801B6428F7D9032002B0BDE8F0819BB93C
:100E8000236823F480332360236823F480232360C2
:100E9000FFF72CFF064623689903B2D5FFF726FF1C
:100EA000801B6428F7D9E6E7B3F5A02F236803D1A8
:100EB00043F480232360CFE723F480332360236847
:100EC00023F48023CBE7684C636813F00C0F07D042
:100ED000636803F00C03082B10D16368DA030DD4A8
:100EE00023689B0702D52B69012BAFD123686A6960
:100EF00023F0F80343EAC203236085E72A695B4BCA
:100F00006AB101221A60FFF7F1FE064623689F07C7
:100F1000ECD4FFF7EBFE801B0228F7D9ABE71A6091
:100F2000FFF7E4FE0646236898077FF56DAFFFF7ED
:100F3000DDFE801B0228F6D99DE7AA694A4E4B4B7D
:100F4000E2B10122C3F88024FFF7D0FE0446736AA1
:100F50009B070DD54FF4FA52454B1B68B3FBF2F3D8
:100F6000019300BF019B5A1E0192002BF9D14FE75C
:100F7000FFF7BCFE001B0228E9D97CE7C3F88024F8
:100F8000FFF7B4FE0446736A9F077FF541AFFFF792
:100F9000ADFE001B0228F6D96DE7334CE369D8009B
:100FA00024D40127E36943F08053E361E36903F04C
:100FB00080530093009B2F4E3368D90518D5EB68FA
:100FC000012B26D1236A43F001032362FFF78EFE33
:100FD00041F288380646236A9B073FD5002F3FF42D
:100FE0001BAFE36923F08053E36115E70027E2E7D5
:100FF000336843F480733360FFF778FE80463368CC
:10100000DA05DCD4FFF772FEA0EB08006428F6D9FD
:1010100031E7ABB9236A41F2883823F00103236238
:10102000236A23F004032362FFF760FE0646236A67
:101030009807D3D5FFF75AFE801B4045F7D91AE72A
:10104000052B236A03D143F004032362BAE723F09C
:1010500001032362236A23F00403B6E7FFF746FE89
:10106000801B4045B7D906E700100240000042420D
:1010700000000020007000402A4C626802F00C0260
:10108000082A3ED00022022B274B1A662CD1FFF7EC
:101090002DFE06462368990120D42B6AB3F5803FC4
:1010A00005D16268A96822F400320A436260696A65
:1010B00062680B4322F474121343012263601A4BDB
:1010C0001A66FFF713FE054623689A013FF5A8AE9E
:1010D000FFF70CFE401B0228F6D9CCE6FFF706FE10
:1010E000801B0228D6D9C6E6FFF700FE0546236816
:1010F0009B017FF595AEFFF7F9FD401B0228F6D95D
:10110000B9E6012B3FF4A2AE60682B6A00F480328E
:101110009A427FF49BAE6B6A00F47010C01A18BF3D
:101120000120A9E600100240000042420D4A536827
:1011300003F00C01082912D10B48C3F38341DB03F0
:10114000405C09D55368094AC3F340435043084AF9
:10115000D35CB0FBF3F07047064B5843704703482D
:10116000704700BF00100240DE73000800127A00D2
:10117000DC73000800093D002DE9F0410D460446EE
:1011800010B90120BDE8F081444A136803F0070359
:101190008B4228D321688E0730D4CA0743D43F4AF4
:1011A000136803F00703AB4265D822683C4D12F088
:1011B000040F6CD1130706D56B68226923F46053C2
:1011C00043EAC2036B60FFF7B1FF6B68354AC3F3B4
:1011D0000313D35CD840344B1860344B186802F0CA
:1011E000B7FB0020CEE7136823F007030B4313601F
:1011F000136803F007038B42C3D1CBE7284B11F0F0
:10120000040F1EBF5A6842F4E0625A60080742BFEA
:101210005A6842F460525A605A68A06822F0F0029C
:1012200002435A60B9E762681D4E012A33681AD139
:1012300013F4003FA5D0736841F2883823F003030C
:1012400013437360FFF752FD07467368626803F04B
:101250000C03B3EB820FA2D0FFF748FDC01B404543
:10126000F3D903208EE7022A02D113F0007FE1E7D1
:1012700013F0020FDEE7136823F007032B4313601C
:10128000136803F00703AB427FF47BAF8DE76B6815
:10129000E16823F4E0630B436B608BE700200240BE
:1012A00000100240CC73000800000020080000205D
:1012B000044B054A5B68C3F30223D35C034A1068FE
:1012C000D840704700100240C4730008000000209E
:1012D000044B054A5B68C3F3C223D35C034A10681E
:1012E000D840704700100240C4730008000000207E
:1012F0000F2303600B4B5A6802F0030242605A68E6
:1013000002F0F00282605A6802F4E062C2605B6838
:10131000DB0803F4E0630361034B1B6803F007037E
:101320000B607047001002400020024003682DE966
:10133000F3410546D80721D5364CE369D9002BD4B3
:101340000126E36943F08053E361E36903F08053CE
:101350000193019B304F3B68DA051FD5236A6A6809
:1013600013F440732ED1236A6A6823F44073134345
:1013700023621EB1E36923F08053E3612A68910779
:1013800006D52449A8684B6823F4404303434B60C7
:10139000D30636D4002012E00026DBE73B6843F496
:1013A00080733B60FFF7A2FC80463B68DB05D5D429
:1013B000FFF79CFCA0EB08006428F6D9032002B0DC
:1013C000BDE8F08102F440729A42CCD00120134A69
:1013D000236AC2F84004002023F44071DF07C2F8FA
:1013E00040042162BFD5FFF781FC41F288380746EF
:1013F000236A9807B7D4FFF779FCC01B4045F7D99B
:10140000DCE7044AE968536823F480030B43536024
:10141000C0E700BF001002400070004000004242E0
:10142000022808B544D0102803D0012822D000207B
:1014300034E0254B5A68186810F080702ED0C2F343
:1014400083412248D20348BF5A68405C41BF2049CB
:10145000C2F34042895C1F4A5B684CBFB2FBF1F2A9
:101460001D4A5B0202FB00F018D403234000B0FBCE
:10147000F3F013E040F20231134A136A1940B1F558
:10148000817F1ED003F44073B3F5007F07D149F686
:101490004040536A13F0020F08BF002008BDB3F5A7
:1014A000407FC4D113684FF2244013F4003FF3E7A8
:1014B000FFF70EFF044B5B68C3F3813301335B001E
:1014C000D5E74FF40040E9E700100240F073000850
:1014D000EE73000800127A0000093D002DE9F74F75
:1014E00000244FF00F0E2646DFF884C1614B00F157
:1014F00004080A6832FA06F502D103B0BDE8F08F9D
:10150000012505FA06F702EA070537EA020276D155
:101510004A68032A07D8013A022A00F28380DFE8EA
:1015200002F091969C00122A00F0948069D8112A4A
:1015300000F08A80FF2D94BF8146C1464FEA8602A3
:10154000D9F8007088BF203A0EFA02FA27EA0A0793
:1015500004FA02F21743C9F80070D1F8049019F0A8
:10156000805F4CD0DCF8182026F0030742F001021F
:10157000CCF81820DCF8182007F1804702F00102AF
:10158000019207F5803706F0030A019A4FEA8A0AAA
:10159000BA680EFA0AFB22EA0B0B374A904260D077
:1015A00002F5806290425ED002F5806290425CD08B
:1015B00002F58062904214BF0422032202FA0AF26A
:1015C00042EA0B02BA609A6819F4801F14BF2A43DA
:1015D000AA439A60DA6819F4001F14BF2A43AA4389
:1015E000DA605A6819F4003F14BF2A43AA435A60CC
:1015F0001A6819F4803F14BF2A43AA431A600136BF
:1016000077E7DFF878904A450CD014D8A9F580190F
:101610004A4507D009F570294A4503D0A9F5801934
:101620004A4587D18A68D2B1012A4FF008040CBF1D
:10163000076147617EE7DFF848904A45F2D009F537
:101640008039EDE7CC6875E7CC68043472E7CC6884
:1016500008346FE7CC680C346CE700246AE7042494
:1016600068E70022AAE70122A8E70222A6E700BF56
:101670000010024000040140000801400000221058
:10168000000031102DE9F74F4FF0040B00224FF00E
:10169000010A4FF00F0800EB0B0301932E4B31FAB8
:1016A00002F402D103B0BDE8F08F0AFA02F70F404E
:1016B00049D022F0030404F1804404F5803402F0A0
:1016C000030CA5684FEA8C0C08FA0CF909EA050E20
:1016D000224DA84239D005F58065A84237D005F5DE
:1016E0008065A84235D005F58065A84214BF042561
:1016F000032505FA0CF575456FEA07060FD11D683D
:1017000035401D605D6835405D60DD683540DD60F9
:101710009D6835409D60A56825EA0905A560FF2FF5
:1017200094BF0746019F4FEA82043D6888BF203C72
:1017300008FA04FC25EA0C050BFA04F425433D6085
:10174000C4683440C4600132A9E70025D1E701250F
:10175000CFE70225CDE700BF0004014000080140AB
:101760008368194214BF0120002070470AB101614B
:1017700070470904FBE7C36801EA030221EA030199
:1017800041EA024101617047034610B530B3016878
:101790001420134A0A44B2FBF0F292001A64114A70
:1017A000DA63022283F82120D3E901242243DC6892
:1017B000086822431C696FF30D1022435C692243C1
:1017C0009C692243DC69224302430A600020012213
:1017D000986383F8200083F8212010BD0120FCE7E6
:1017E000F8FFFDBF0000024010B508B30168114AC0
:1017F0000B680A4423F001030B6000230B604B606D
:101800008B60CB601421B2FBF1F201210A4C9200F3
:10181000026401FA02F2C46362608363C0E90A33BE
:10182000C0E90C3380F8213080F82030184610BD14
:101830000120FCE7F8FFFDBF00000240F0B590F882
:101840002040012C34D0012480F8204090F8214021
:10185000012CE5B24FF0000428D1022680F8216067
:1018600084630468266826F001062660D0E90F67C5
:10187000BD40756063604368102BC36A0BBFA260F4
:10188000A160E160E2604BB1236843F00E030020E9
:101890002360236843F001032360F0BD236823F035
:1018A00004032360236843F00A03F0E780F8204034
:1018B0000220F2E790F821200346022A06D00422F3
:1018C00082630120002283F8202070470268C06BE9
:1018D000116821F00E011160116821F00101116001
:1018E00001211A6C01FA02F24260002083F82110F3
:1018F000E8E7000008B590F82130022B03D004235C
:101900008363012008BD03681A6822F00E021A6082
:101910001A6822F001021A60174A93421FD014324B
:1019200093421ED0143293421DD0143293421DD0E4
:10193000143293421DD01432934214BF4FF080737F
:101940004FF480130D4A5360012380F821300023A7
:1019500080F82030436B03B198470020D2E7012381
:10196000F0E71023EEE74FF48073EBE74FF480537A
:10197000E8E74FF48033E5E708000240000002404A
:1019800070B40425C66B026C346803689540254228
:10199000196832D04D0730D51A6896065EBF1A68AE
:1019A00022F004021A603E4A934219D01432934244
:1019B00018D01432934217D01432934217D01432F5
:1019C000934217D01432934214BF4FF080634FF408
:1019D0008003344A5360C36A002B5ED070BC184742
:1019E0000423F6E74023F4E74FF48063F1E74FF474
:1019F0008043EEE74FF48023EBE702259540254234
:101A000035D08D0733D51A68940606D41A6822F0AB
:101A10000A021A60012280F82120214A934219D03B
:101A20001432934218D01432934217D01432934296
:101A300017D01432934217D01432934214BF4FF090
:101A400000734FF40013174A5360002380F82030CE
:101A5000836AC1E70223F6E72023F4E74FF400731B
:101A6000F1E74FF40053EEE74FF40033EBE70825BE
:101A70009540254211D009070FD5196821F00E01B4
:101A80001960012303FA02F27260836380F8213047
:101A9000002380F82030036B9EE770BC704700BFC6
:101AA000080002400000024090F82100704700004A
:101AB00007490302CA6803F4E06322F4E0621204F7
:101AC000120C134343F0BF6343F40033CB60704701
:101AD00000ED00E0154B30B5DC68C4F30224C4F11E
:101AE0000703251D042B28BF0423062D4FF0FF35C7
:101AF00094BF0024033C05FA03F321EA0303A54045
:101B000022EA0502A340002843EA0203ACBF00F129
:101B10006040074A4FEA0313DBB2ABBF00F56140F8
:101B200000F00F0080F80033135430BD00ED00E0EA
:101B300014ED00E0002807DB01234109034A00F00F
:101B40001F00834042F82130704700BF00E100E0F1
:101B500000280CDB01220649430900F01F008240E7
:101B6000203341F82320BFF34F8FBFF36F8F7047AF
:101B700000E100E0114AD36813F0100305D01049CA
:101B8000CB6943F00203CB611023D268500706D51E
:101B90000B4943F00403CA6942F00102CA61074AD3
:101BA000D169C90708D50648C16941F00401C1617E
:101BB000D16921F00101D161D3607047002002405A
:101BC000C0000020064B186910F0800007D0054ABD
:101BD0005A6002F188325A601869C0F3C010704729
:101BE0000020024023016745034A0020136943F0A7
:101BF00080031361704700BF0020024070B50546A6
:101C0000FFF774F80646114CE368D80712D4E3686E
:101C1000990644BF2023E360E368DA0606D4E3694B
:101C2000DB0703D4E06810F0040007D0FFF7A2FF41
:101C3000012003E06B1CE7D00DB9032070BDFFF756
:101C400055F8801BA842DFD9F7E700BF002002400B
:101C50002DE9F84FDFF894A01F469AF81830054692
:101C6000012B884691463FD001234CF250308AF830
:101C70001830FFF7C3FF90BB012D03D0022D14BF16
:101C80000425022500263346DFF864B03401C4F190
:101C90002001A4F1200207FA01F129FA04F4CAF89C
:101CA0001C300C4327FA02F21443DBF81020A4B2D4
:101CB00042F00102CBF810204CF2503028F81640C8
:101CC000FFF79CFFDBF8102022F00102CBF8102078
:101CD00028B90136F2B295424FF00003D6D800235E
:101CE0008AF81830BDE8F88F0220FBE7C00000201A
:101CF000002002400022064BDA61064B1A6942F0CE
:101D000002021A6158611A6942F040021A61704772
:101D1000C0000020002002402DE9F041264F05467A
:101D20003B7E8846012B44D001243C7603684CF26C
:101D30005030022B1AD1FFF761FF20B101200023A0
:101D40003B76BDE8F0811D4CF86123694CF25030C0
:101D500043F004032361236943F040032361FFF749
:101D60004DFF236923F004032361E8E7FFF746FFF3
:101D70000028E3D14FF0FF33C8F800302046AE68AA
:101D80000E4CD5E9023203EB8223B342D7D9304659
:101D9000FFF7B0FF4CF25030FFF730FF236923F01C
:101DA0000203236110B1C8F80060C8E706F5806639
:101DB000E7E70220C5E700BFC00000200020024086
:101DC0002DE9F3471F46894690460446FEF78EFFED
:101DD0000A9D3D442D1AFEF789FF8246254B1E6859
:101DE000C6F3CB366E4301962268936839EA030343
:101DF0000CBF01230023434501D100202EE07B1CB2
:101E0000F3D0FEF773FFA0EB0A00A84229D32368A2
:101E10005A6822F0E0025A606268B2F5827F0AD105
:101E2000A268B2F5004F02D0B2F5806F03D11A68F4
:101E300022F040021A60A26AB2F5005F07D11A6868
:101E400022F400521A601A6842F400521A60012308
:101E500084F851300023032084F8503002B0BDE8EC
:101E6000F087019A019B002A03F1FF3308BF154652
:101E70000193B9E70000002073B50B4600920D46B0
:101E80001646022101220446FFF79AFF024628B1B6
:101E9000636D032043F02003636507E02B46802138
:101EA00020460096FFF78CFF0028F1D102B070BDEC
:101EB00010B50446002851D0436A002B4AD142682D
:101EC000B2F5827F00D0C3610023A36294F8513041
:101ED00003F0FF0223B9204684F8502001F0DEFB16
:101EE0000223226884F851301368A06823F040036D
:101EF0001360636800F4044003F482730343E068F2
:101F0000A16900F400600343206900F0020003436C
:101F1000606900F00100034301F400700343E069CD
:101F2000090C00F038000343206A01F0040100F0BE
:101F300080000343A06A00F4005003431360516023
:101F4000D369002023F40063D3610123606584F822
:101F5000513010BD0023C0E90433B5E70120F8E794
:101F600010B5044680B10223026880F8513013682E
:101F700023F04003136001F0E3FB0020606584F868
:101F8000500084F8510010BD0120FCE72DE9F74313
:101F900004461F460D469046FEF7A8FE94F85130C1
:101FA0008146012BD8B240F09F80002D74D0B8F14B
:101FB000000F71D094F85030012B00F0958003236E
:101FC00084F8513000236365C4E91033A4F83680E7
:101FD000A363A387E387A3682668B3F5004F84F85B
:101FE00050002563A4F8348007D1336823F0400300
:101FF0003360336843F4804333603368E2685B06E0
:102000005EBF336843F040033360B2F5006F63682E
:1020100045D113B1B8F1010F07D135F8023BF36098
:102020002563E38E013B9BB2E386E38E9BB2D3B97B
:102030004A4639462046FFF71FFF002851D1A368C2
:1020400033B901932368DA6801929B680193019B7D
:10205000012384F851300023606D84F85030C01A99
:1020600018BF012018E022689368980705D5236BF4
:1020700033F8021BD1602363D3E7FEF737FEA0EBF2
:102080000900B842D1D3791CCFD0012384F8513054
:102090000023032084F8503003B0BDE8F08313B16F
:1020A000B8F1010F08D12B783373236B013323630D
:1020B000E38E013B9BB2E386E38E9BB2002BB7D04D
:1020C00023689A68920703D5226B12781A73ECE79B
:1020D000FEF70CFEA0EB0900B842EDD37B1CEBD061
:1020E000D3E720236365AAE70220D5E770B590F80F
:1020F00051300446012BDDB24ED1002936D0002AE2
:1021000034D090F85030012B46D0032380F8513062
:1021100000234365C0E91033C28683638387C38786
:1021200083688286B3F5004F026880F850500163DF
:1021300007D1136823F040031360136843F480430E
:1021400013600026A06C154B4663C362144B0C321F
:102150008362144B0363E38E9BB2FFF76FFB38B1CE
:10216000636D84F8506043F010036365284670BDCA
:10217000002523681A6852065EBF1A6842F04002C2
:102180001A6084F850505A6842F020025A605A6827
:1021900042F002025A60E9E70225E7E7AD210008B4
:1021A000DB210008B92100087047704708B5406A74
:1021B000FFF7FBFF08BD7047406A08B50268536827
:1021C00023F003035360436D43F010034365012381
:1021D00080F85130FFF7EFFF08BD37B50546446A78
:1021E000FEF784FD2B6802461B689B0626D42368F5
:1021F0002046596821F020015960596821F00201F8
:1022000059606421FFF738FE18B1636D43F0200375
:102210006365A36833B901932368DA6801929B6808
:102220000193019B0023E386012384F85130636D01
:1022300023B12046FFF7BFFF03B030BD2046FFF7B4
:10224000B3FFF9E7026802F10C0353E8003F23F4FF
:1022500090730C3242E8003102680029F2D102F199
:10226000140353E8003F23F0010302F1140C4CE87F
:1022700000310029F3D1036B012B0BD102F10C03C8
:1022800053E8003F23F0100302F10C0C4CE800313E
:102290000029F3D1202380F84230002303637047E4
:1022A00010B504460368C1681A6922F440520A4313
:1022B0001A6182680069D9680243606921F4B051EB
:1022C00021F00C0102430A43DA605A69A16922F441
:1022D00040720A435A610E4A934215D1FEF7F8FF45
:1022E00019234343626820689200B3FBF2F364222F
:1022F000B3FBF2F102FB11331B013233B3FBF2F3F8
:1023000003EB0113836010BDFEF7D2FFE8E700BFC7
:102310000038014010B5044648B390F8413003F04E
:10232000FF021BB980F8402001F070FA24232268D4
:1023300084F84130D368204623F40053D360FFF77C
:10234000AFFF236800201A6922F490421A615A698B
:1023500022F02A025A61DA6842F40052DA6020233D
:10236000606484F8413084F84230606310BD01201D
:10237000FCE710B50446A0B12423026880F8413080
:10238000D36823F40053D36001F0B4FA00206064F2
:1023900084F8400084F8410084F8420020636063C0
:1023A00010BD0120FCE790F84130202B10D189B1FD
:1023B00082B1C284828400232122016201684364C5
:1023C00080F84120CA68184642F08002CA6070470F
:1023D0000220704701207047704708B50023406A0B
:1023E000C385C384FFF7F8FF08BD704790F84230FB
:1023F00007B5222B42D181680268B1F5805F836AFC
:102400003FD1016900293FD15268C2F3080223F885
:10241000022B8362C38D013B9BB2C385002B2DD160
:102420000268D16821F02001D160D16821F4807167
:10243000D160516921F001015161202280F84220D0
:102440004363026B012A026828D1036302F10C0383
:1024500053E8003F23F0100302F10C0C4CE800316C
:102460000029F3D11368DB0605D5019113680193A8
:1024700053680193019B818DFFF7B7FF03B05DF8AF
:1024800004FB39B9016929B95268D2B21A70836A5A
:102490000133BEE7526802F07F02F7E701F042F82D
:1024A000ECE70000036873B51A6804461607D9689C
:1024B0005D6908D1960668D58D0666D502B0BDE87F
:1024C0007040FFF793BF05F0010001F490750543DC
:1024D0005BD0D60705D5CD0542BF636C43F0010341
:1024E0006364530704D518B1636C43F0020363645B
:1024F000960704D518B1636C43F0040363641507B1
:1025000007D501F0200303431EBF636C43F00803AB
:102510006364636C002B32D0920604D58B0602D51F
:102520002046FFF763FF266820467369626C03F05C
:10253000400302F0080253EA020522D0FFF782FEB0
:1025400073695E0618D5226802F1140353E8003F50
:1025500023F04003143242E800310029F3D1E06B4C
:1025600050B1744B4363FFF7C5F940B1E06B436B67
:1025700002B0BDE8704018472046FFF72DFF02B0BB
:1025800070BDFFF729FF6564F9E7206B012840F073
:102590009480D50640F19180C80640F18E800022DB
:1025A00001921A6801925A680192019A5A69520678
:1025B0004DD5E16B0A68526892B2002ADFD0A08D37
:1025C0009042DCD9E2858A69202A36D003F10C02D8
:1025D00052E8002F22F4807203F10C0040E8002141
:1025E0000029F3D103F1140252E8002F22F0010276
:1025F00003F1140040E800210029F3D103F1140293
:1026000052E8002F22F0400203F1140040E80021BC
:102610000029F3D1202284F84220216303F10C0227
:1026200052E8002F22F0100203F10C0040E80021D4
:102630000029F3D1E06BFFF73DF902236363E38DDB
:10264000A18DC91A89B22046FFF7CFFE97E7E28D28
:10265000E08DA18D80B292B2002890D0891A89B203
:1026600000298CD003F10C0252E8002F22F4907262
:1026700003F10C0545E800200028F3D103F1140212
:1026800052E8002F22F0010203F1140545E8002072
:102690000028F3D1202284F84220206303F10C02A9
:1026A00052E8002F22F0100203F10C0545E800204B
:1026B0000028F3D102236363C5E7160628D50D066B
:1026C00026D594F84120212A7FF459AFA168226AC7
:1026D000B1F5805F17D12169A9B932F8021BC1F3A6
:1026E000080159602262E28C013A92B2E284002A27
:1026F0007FF445AFDA6822F08002DA60DA6842F0EF
:102700004002DA603BE7511C216212785A60EAE726
:1027100050067FF534AF4A067FF531AFDA682046C0
:1027200022F04002DA60202384F8413000F0F8FE05
:1027300025E700BFDB2300080023C2854364222372
:102740008285026980F84230816203681AB1DA68D2
:1027500042F48072DA605A69002042F001025A6144
:10276000DA6842F02002DA60704770B490F8426094
:10277000202E06D141B13AB10024046370BCFFF7AA
:10278000DBBF022070BC70470120FBE708B54FF6A5
:10279000FF7001F01FFF4FF6FF7001F01BFFBDE857
:1027A00008404FF6FF7001F015BF73B5A0B30128C4
:1027B00035D0022839D04FF6FF754FF6FF74264604
:1027C0006D23A2223A214E20009501F0ABFF6E232B
:1027D000A32239214D20009501F0A4FFAB23A222B2
:1027E00078214E20009401F09DFFAC23A322772195
:1027F0004D20009401F096FFE923A222B6214E203D
:10280000009601F08FFFEA23A322B5214D20009608
:1028100001F088FF02B070BD48F21005CDE74FF619
:10282000FF7548F210042E46CAE74FF6FF7448F2CF
:1028300010062546C4E700002DE9F74F07461A2584
:1028400000264FF6FF7A48F2100BDFF84C9099F80B
:102850000020F3B29A4202D803B0BDE8F08F9F4245
:1028600014BFD046D846ACB204F11A0329B2F02204
:1028700000201BB2CDF8008001F054FF04F11B03CF
:10288000611EF0220020CDF800801BB209B201F0D9
:1028900049FF01361A35DAE7E500002000B58BB0B4
:1028A000FFF774FF0C4902A803F059FE02A8FDF7D8
:1028B0004FFC0A234FF6FF72584300234008C0F133
:1028C0007800CDE900327021044B02AA80B201F0F9
:1028D000D3FA0BB05DF804FB00740008887D000893
:1028E00070B502F083FF2848FFF743FD2748FFF744
:1028F00040FD2748274CFDF7D5FC2748FEF766F931
:102900002648FFF72DFB6369254E23F00103636121
:10291000244D0D20FFF71CF9002220213046FEF740
:1029200025FF01224FF4E0712846FEF71FFF10211A
:102930003046FEF7A7FE20213046FEF7A3FE43F205
:1029400004012846FEF79EFEC0211748FEF79AFEB6
:1029500040212846FEF796FE4FF4C0712846FEF748
:1029600091FEA36923F00803A361A36923F0040384
:10297000A361FEF7D3F9FEF78BF94FF0E0230022B5
:102980001A615A619A6170BDAC040020F404002001
:102990003C0500200010024020060020C805002051
:1029A00000080140000C01400010014008B5054C32
:1029B00020462021FEF7DFFE4FF4FA7003F072F894
:1029C000F6E700BF000801402DE9F043E3B0FFF750
:1029D000DDFE6B4906A803F0C2FD06A8FDF7B8FBB3
:1029E0000A23002558434FF6FF734008C0F17800D2
:1029F0007021CDE9005306AA624B80B201F03CFA87
:102A0000012202216048FEF7B1FE604803F00AFA95
:102A1000012803D103F074F9012804D0FFF73EFF29
:102A200063B0BDE8F0835A4C42AB206861688DF812
:102A3000A85003C3A0681860564B2993564B1968D9
:102A4000564B186803F080F90128E7D129A942A85C
:102A500003F09CF902280BD129A942A803F096F9AA
:102A6000022805D129A942A803F090F90228D5D05F
:102A70000128D3D1322200210DA803F006FC2068E2
:102A8000616803AB03C3A0684549186003AA1AA88C
:102A900003F096FB1AA803F097F90128BED1414C28
:102AA0000C222046404903F09FF8211842A803F069
:102AB00056FD3E4942A803F0FFFB044608B33B4FD6
:102AC000DFF8EC803B4E3946002003F0F5FB04466E
:102AD000FDF73EFB054629A8FDF73AFBC0F164036C
:102AE0009D42F0D24146204603F042FC0028EAD144
:102AF000214629A803F0D1FB314629A803F0CDFBDC
:102B0000E1E729A90DA803F02AFDFFF73FFE2949B7
:102B10000DA803F0D1FB80462046274D274E254FB8
:102B200000F11A04B8F1000F0CD100287FF478AF3F
:102B30004FF6FF737821CDE90003214A1F4B01F0C6
:102B40009BF96DE72B78404601332B70FDF700FBB6
:102B500003015B08C3F1780398B24FF000094FF608
:102B6000FF734246CDE90093A1B2334601F084F9E8
:102B70003946484603F0A0FB80462046D0E700BF18
:102B80001A740008887D000800100140AC04002081
:102B90007F740008353030300C0000201000002019
:102BA0002F7400088020002058740008E274000888
:102BB000657400087A760008E5000020A4C50008C6
:102BC0006F74000838B5204C204D237873B92B7CE6
:102BD0000BBBFFF785FE1E4A936923F01003936138
:102BE0001C4BD3E9002382F3088818472378012B74
:102BF00005D12A7C7AB9184A1370FFF7E5FE2378CD
:102C0000022B08D12B7C33B9FFF76AFE0122042185
:102C10001248FEF7ABFDAB7B63B9114B9B7B4BB10D
:102C2000207801280FD80130C0B22070BDE83840AC
:102C3000FFF7BBBD6B7B33B9094B5B7B1BB12078C6
:102C400008B10138F0E738BD810400209604002067
:102C50000010024000000108800400200010014024
:102C6000820400202DE9F04F002787B006AB03E96E
:102C70000300BDF81490029209F1FF330393BDF8ED
:102C80001630BCB2A34237D923460B2253430193DB
:102C9000029B00261C444FF04E0A24B227E0554602
:102CA00007224FF0010B039B9B1BD3F1000848EB5D
:102CB00003084FEA88080499019B3144C95C0BFA68
:102CC00002F25FFA82FC0A4094450CBF4FF6FF7295
:102CD000002228B22146013501F090FCADB20AF184
:102CE0000702521B52B24245E5DAAA460136B2B299
:102CF0009145D4D80137C2E707B0BDE8F08F000096
:102D000010B58AB0FFF742FD48F2100400211E23DF
:102D1000F0220846009401F01DFC114903A803F0BD
:102D20001EFC0A214FF6FF7303AA009308460D4BC1
:102D3000019401F0A1F80C4B3A2293E80300FFF74D
:102D400091FF0A4B782293E80300FFF78BFF084BB3
:102D5000B62293E80300FFF785FF0AB010BD00BF5D
:102D60008B740008969D00082C0000202400002091
:102D7000340000202DE980489FB0FFF7C1FF874B4A
:102D8000DFF81C921878FFF710FD864B1A78012A9D
:102D900005D0FFF717FF212002F084FEF5E7DFF8EA
:102DA00008A29AF80F2052B9804802211A70FEF743
:102DB000DDFCFFF7A5FF794B1878FFF7F6FC9AF8D2
:102DC0001040002C40F0C680794A0CAB1068516866
:102DD0008DF8204003C3906801241860754B764E2F
:102DE000079340230F94CDE91163FEF7EBFE002813
:102DF00040F0B08009A90FA8FEF78EFF0546002815
:102E000040F0A8802F4603220D2006A903F02EF8DB
:102E10000396029407A90CA802F0B8FF022809D172
:102E200007A90CA802F0B2FF022803D107A90CA839
:102E300002F0ACFF00244FF6FF760322029805A9AA
:102E400003F014F8FFF7A2FC3C2119205B4B5C4A0D
:102E5000CDE9004601F010F85A4906AB05AA09A8C9
:102E600003F0AEF909A8FDF773F90A2358434008A7
:102E7000C0F178005C21514B09AA80B2CDE900462F
:102E800000F0FAFF50490CAB05AA0FA803F098F91F
:102E90000FA802F099FF01285CD1264607224B4972
:102EA00009EB040002F0A0FE421C3ED0441DB6B166
:102EB00004EB090807224046444902F095FE431CF2
:102EC000064607D106224046414902F08DFE0646DD
:102ED000701C3FD0A0464FF0000BB04501DB01262F
:102EE000DCE7BBF1000F0AD119F808B0ABF13A01E9
:102EF000D1F1000B4BEB010B08F10108EDE719F8DC
:102F00000830EA009340032D47EA03070BD13A4605
:102F10000027002302200399FEF79AFE039B3D46FB
:102F200004330393E8E70135E6E7029B01330E2BF8
:102F300002937FF46FAFFEF757FEFFF727FC0023E5
:102F40004FF6FF727821CDE9003241201B4B214A18
:102F500000F092FF9AF80E307BB91F4B9B7B63B158
:102F60001E4B1F4A1878127882427FF614AF013048
:102F7000C0B21870FFF760FC0DE79AF80D30002B17
:102F80007FF409AF144B5B7B002B3FF404AF134B72
:102F9000187800283FF4FFAE0138E9E781040020EB
:102FA00080200020800400209604002000100140B2
:102FB0007F7400083530303000000108887D00083B
:102FC0009F740008B3740008B9740008E574000821
:102FD000ED740008F474000882040020E40000206E
:102FE000E500002030B595B0202200210BA803F0A9
:102FF0004CF91422102500210DEB020003F045F9D5
:103000002A46002101A803F040F901230224CDE95A
:103010000E354FF460130AA80A9411941393FDF728
:10302000E9FE08B172B6FEE70F23CDE905344FF48F
:1030300080630790CDE90830214605A8FEF79CF88B
:1030400008B172B6FEE74FF4004301A80194039360
:10305000FEF76CF908B172B6FEE715B030BD1FB5CA
:10306000002303930123019101A90293FDF7EEFBD5
:1030700008B172B6FEE705B05DF804FB00232DE948
:10308000F04786B0CDE900333A4B02AF0FCB87E86B
:103090000F00394D394EDFF8E880BA46E946002482
:1030A0005AF8041B2846FFF7DAFF2846FDF788FC8C
:1030B0000A212846FDF722FB2846FDF7C3FB013411
:1030C000042C29F8020BEBD12E4B2F4A1C4603F19E
:1030D000140153F8040B8B4242F8040BF9D1BDF8EC
:1030E000003010212380BDF8023028486380BDF8ED
:1030F0000430E380BDF806302381FEF731FB042164
:1031000020713046FEF72CFB4FF48051A072304600
:10311000FEF726FB4FF40051A0733046FEF720FB6C
:10312000402160734046FEF71BFB8021207440461F
:10313000FEF716FB4FF40041E0733046FEF710FB3C
:103140004FF48041E0723046FEF70AFB0A212073FB
:103150002846FFF784FF2846FDF732FC0A2128465F
:10316000FDF7CCFA2846FDF76DFB6082212002F0C6
:1031700099FC92E7B473000820060020000C01407F
:103180000010014096040020820400200008014045
:103190002DE9F04F4FF0100A0125022799B0DFF812
:1031A0009492FDF785FDFFF71DFF5246002110A800
:1031B00003F06BF8D9F81830002243EA0A03C9F883
:1031C0001830D9F81830062103EA0A030493049B47
:1031D000D9F81830984843F00403C9F81830D9F8E2
:1031E0001830002403F004030593059BD9F8183028
:1031F000202643F00803C9F81830D9F818304FF0EA
:10320000030803F008030693069BFEF7AFFA0022BB
:1032100020218A48FEF7AAFA01224FF4E07188487B
:10322000FEF7A4FA844810A9CDE91075CDE912770C
:10323000FEF754F90423804810A9CDE91035CDE9F3
:103240001247FEF74BF97D4810A9CDE910A412955D
:10325000FEF744F9794810A9CDE91065CDE9124788
:10326000FEF73CF94FF20403754810A9CDE910347C
:103270001295FEF733F9C0236F4810A9CDE9103439
:103280001295FEF72BF940236D480DEB0301CDE9B4
:1032900010351294CDF84C80FEF720F94FF4C0732E
:1032A000674810A9CDE91035CDE91258FEF716F997
:1032B000D9F8143022462B43C9F81430D9F8143009
:1032C00021462B400D200393039BFEF703FC0D20AA
:1032D000FEF730FC4FF482735A48DFF86CE14FF090
:1032E0000A09C0E900E34FF40073C0E90244C0E9F1
:1032F0000444C0E9063AC0E908448462C0F82C904E
:10330000FEF7D6FD08B172B6FEE7504C504BCDE942
:10331000100023604FF460231290A060207320758A
:1033200060602046E3612561FDF7D2FB08B172B60B
:10333000FEE70623129010A92046CDE91035FDF7CF
:1033400085FA034608B172B6FEE74FF4E1324FF05A
:103350000C0A4048DFF800C1C0E90233C0E900C2EE
:10336000C0E905A30361C361FEF7D4FF834608B13A
:1033700072B6FEE701461C22CDE9070009A802F05B
:1033800084FF3246594610A802F07FFF334E344B7B
:103390003046C6E9003B42F21673C6E905BBC6E9F2
:1033A000033BC6F808B0FDF7A3F808B172B6FEE714
:1033B000CDE9070007A93046FDF74AF9024608B1F2
:1033C00072B6FEE760214FF4FA73CDE90B00CDE948
:1033D0000913CDE90D000F9009A93046FDF7E0F87B
:1033E00008B172B6FEE74FF40053CDE91000CDE905
:1033F00012001490179010A930461593FDF756F956
:10340000834608B172B6FEE7304600F0C9F94FF4C2
:1034100016531448144AC0E904BAC0E90023C0E9AD
:1034200002BBC0E906BBFEF775FF8246F0B172B67B
:10343000FEE700BF001002400010014000080140FC
:10344000000C0140C805002000300140200600208B
:1034500000240140F4040020004400403C0500200A
:10346000002C0140AC0400200048004000F02CFD7E
:103470004FF4FA631C4E494633807380F3803381E6
:1034800040F201132046B381F381F5723574FFF7E2
:10349000E6FD2046FDF794FA49462046FDF72EF951
:1034A0002046FDF7CFF9534670824FF480720F49E2
:1034B000CDE9005A0E4802F025F90E4B4FF4807208
:1034C000CDE900830C4953460C4802F01BF95346E2
:1034D0004FF480720A49CDE9007A0A4802F012F9E5
:1034E00002F042F9FEE700BF9604002000750008D4
:1034F000AD290008E000002005750008752D0008C2
:10350000127500087D300008034B0360034B0B600D
:1035100080231360704700BFE8020020E80000200D
:1035200002F03EBB02F048BB0368B3F1804F01D10B
:10353000FDF7D0BB704772B6FEE7FEE7FEE7FEE799
:10354000FEE7FEE7704700000148FEF719BA00BF2A
:10355000840500200148FCF7D8BE00BF50060020BB
:103560000148FEF79FBF00BFAC0400200E4B82B0A5
:103570009A6942F001029A619A6902F0010200928E
:10358000009ADA6942F08052DA61DB69074A03F097
:1035900080530193019B536823F0E06343F0007371
:1035A000536002B0704700BF0010024000000140AD
:1035B000102210B5044688B00DEB0200002102F085
:1035C00064FE22681F4B9A423AD103F56C439A6914
:1035D000032442F400729A619A691B4802F4007253
:1035E0000092009A9A6904A942F010029A619A69BD
:1035F00002F010020192019A9A6942F004029A6163
:103600009A6902F004020292029A9A6942F0080250
:103610009A619B6903F008030393039B0123CDE99F
:103620000434FDF75BFFC023084804A9CDE9043446
:10363000FDF754FF064804A9CDE90444FDF74EFF09
:1036400008B010BD002401400010014000080140F6
:10365000000C014008B502680B4B9A4212D10B4A8C
:10366000012193690A4823F400739361FEF70AF875
:10367000C0210848FEF706F8BDE8084003210648C7
:10368000FEF700B808BD00BF002401400010024052
:103690000010014000080140000C014070B51026E8
:1036A000054686B03246002102A802F0EEFD2A68E7
:1036B0001E4B9A4238D103F560439A691C4842F484
:1036C00080529A619A6902A902F480520092009A8B
:1036D0009A69184C42F008029A619B69282203F00B
:1036E00008030193019B0223CDE9022303230593E1
:1036F000FDF7F4FE104A2046536843F0E06343F0C0
:10370000010353600D4B8022C4E900360023C4E955
:103710000232C4E90433C4E90633FEF735F808B1D0
:10372000FFF709FFAC64656206B070BD0030014070
:10373000000C0140840500200000014030000240E0
:1037400002680A4B10B59A4204460DD1084A09484E
:103750009369282123F480539361FDF793FFA06CB4
:10376000BDE81040FEF740B810BD00BF003001407A
:1037700000100240000C01400268084B82B09A42DF
:103780000AD103F564439A6942F400629A619B6925
:1037900003F400630193019B02B07047002C0140C9
:1037A00010B5044686B01022002102A802F06DFD7B
:1037B00022680D4B9A4214D103F564439A690B4871
:1037C00042F004029A619B694FF4807203F0040393
:1037D0000193019B022302A9CDE902230593FDF782
:1037E0007DFE06B010BD00BF002C01400008014066
:1037F0000268044B9A4201BF034A936923F40063B1
:1038000093617047002C014000100240102210B557
:10381000044688B00DEB0200002102F036FD23685B
:103820002F4A934227D12F4B0421DA692E4842F4C4
:103830000032DA61DA6902F400320092009A9A6981
:1038400042F004029A619B6903F004030193019B17
:103850000223CDE90413032304A90793FDF73EFED9
:103860000820002304A9CDE904031F480693FDF7AF
:1038700035FE08B010BD1D4A9342FAD1194B04A978
:10388000DA691B4842F48022DA61DA69002402F422
:1038900080220292029A9A6942F008029A619B6918
:1038A0004FF4806203F008030393039B0223CDE9E6
:1038B000042303230793FDF711FE4FF4006304A9CB
:1038C0000B48CDE904340694FDF708FE2246214654
:1038D0002720FEF7FFF82720FEF72CF9C9E700BFE5
:1038E0000044004000100240000801400048004031
:1038F000000C014008B5124A036893420BD102F54F
:10390000E632D3690C2123F40033D3610D48BDE8BE
:103910000840FDF7B7BE0C4A93420FD102F5E432DE
:10392000D3690A4823F48023D3614FF44061FDF743
:10393000A9FEBDE808402720FEF70AB908BD00BF70
:10394000004400400008014000480040000C0140D5
:1039500070B5214B88B0DA69054642F00102DA61A0
:10396000DB6901A903F00103029303A8029BFDF7A1
:10397000BFFC069B53BBFDF79BFC4FF08043174EEB
:10398000336040F2E733F360154BB0FBF3F3013BD8
:103990007360002330463361B360B361FCF77CFD94
:1039A000044680B93046FCF753FC044658B91C2045
:1039B000FEF7C0F80F2D0DD8224629461C20FEF731
:1039C00089F8084B1D60204608B070BDFDF770FCFB
:1039D0004000D2E70124F6E7001002405006002024
:1039E00040420F00080000200B4A0346116810B542
:1039F00009B90A491160106809490A4C0344091BB6
:103A00008B4206D902F07EFD0C2303604FF0FF309D
:103A100010BD1360FCE700BF980600201041002095
:103A200000500020000400000120704708B502F09B
:103A300069FD162303604FF0FF3008BD08B502F0A2
:103A400061FD16230360FEE770B50D4614460E4671
:103A5000731B9C4201DC204670BDAFF3008006F86A
:103A6000010BF5E770B50D4614460E46731B9C42DC
:103A700001DC204670BD16F8010BAFF30080F5E7BE
:103A80004FF0FF3070474FF4005300204B607047F9
:103A90000120704700207047FCF762FB0B480C497F
:103AA0000C4A002302E0D458C4500433C4188C429A
:103AB000F9D3094A094C002301E013600432A24201
:103AC000FBD302F025FDFFF763FB704700000020E9
:103AD0009C000020E0F900089C000020104100201C
:103AE000FEE7000040222DE9F8431C4B04461A6112
:103AF0004FF080720D464FF6FF79194FDFF8648062
:103B00001A612DB94FF48072144B1A61BDE8F88325
:103B10004D452E4628BF4E46202DB2B215D921461E
:103B20003846FEF7E3FAB86CFDF7BEFF0128FAD17C
:103B300098F90230012B06D198F90130012B0CBF06
:103B4000A41904EB4604AD1BDBE74FF0FF3321461D
:103B50003846FEF71BFA98F90030EFE7000C0140F9
:103B6000C80500202000002070B5202892B004462F
:103B7000ADF8061010D802AA0023164689B2A34257
:103B800011D174B1202C254628BF20253046294666
:103B9000FFF7A8FF641BF4E701460DF10600FFF7ED
:103BA000A1FF12B070BD22F8021B0133E7E700004D
:103BB0000B4A01281368196821F04001196009496E
:103BC00008700BBF4FF400610021D160D1600BBFC2
:103BD0001A681A680A4322F400621A60704700BF2C
:103BE000C80500202000002070B5214E054696F93A
:103BF000003048B283420C4601D0FFF7D9FF96F956
:103C00000130A34203D196F90230AB4227D0194BC1
:103C100070709A6CB5701368196821F00101196011
:103C2000196811F00101FBD1012D0BBF8021D1607A
:103C3000D16019680ABF196821F0800141F0800144
:103C4000012C19600CD14FF480704FF48061C2E9EF
:103C500004011A6822F4706242F4A0621A6070BD16
:103C60000021C2E904111A6822F47062F6E700BF6D
:103C700020000020C805002000210120FFF7B4BF6C
:103C800070B5134B044693F900300D4613B1002074
:103C9000FFF78EFF4FF480030E4E012233614FF089
:103CA0008073214633610C484FF0FF33FEF76EF905
:103CB00045B140232A46336107484FF0FF33611C6A
:103CC000FEF764F94FF48072024B1A6170BD00BFB9
:103CD00020000020000C0140C805002037B51C461C
:103CE0002A238DF8003003120D468DF801308DF82F
:103CF00002001312684604218DF804208DF8033069
:103D0000FFF7BEFF2B238DF800302B1268468DF88D
:103D10000130042123128DF803308DF802508DF804
:103D20000440FFF7ADFF2C23002168468DF80030DA
:103D3000FFF7A6FF03B030BDB0F1FF3F08B505D1D6
:103D400001200021FFF750FF002008BDFFF7C6FF4C
:103D500000200121FFF748FF4022024B02481A6170
:103D6000F3E700BF000C0140693B000837B585B29E
:103D7000EF2D0B4618D88DB2EF2D15D852BAADF8ED
:103D800004200246FFF7AAFF4023084C02222361C9
:103D90004FF080730648236101A94FF0FF33FEF70F
:103DA000F5F84FF48073236103B030BD000C01407F
:103DB000C805002038B55C1A151A013405FB044407
:103DC0001BB212B209B200B2FFF788FF0121002036
:103DD000FFF70AFF2046BDF81010FFF7C5FE0021CF
:103DE0000120FFF701FF002038BD904213B509D133
:103DF00099420FD8BDF810400094FFF7DBFF002078
:103E000002B010BD994209D19042F3D90446104640
:103E10002246EFE70C4619462346EBE74FF0FF300A
:103E2000EEE7EF2870B5144625D8EF2923D89588FA
:103E30004319F02B1FDCD6888B19F02B1BDC137A6F
:103E4000102B18D14B1E421E33442A441BB212B20F
:103E500009B200B2FFF742FF01210846FFF7C4FE96
:103E600006FB05F12068FFF73DFEBDE8704000212C
:103E70000120FFF7B9BE70BD2DE9F0410D46164691
:103E80000446BDF818801846BDF81C7000F05CFBB5
:103E9000404600F0C5FC384600F0CAFC324629B264
:103EA00020B2BDE8F04100F061BC00280CBF28231F
:103EB000292307B5002101A88DF80430FFF7E0FEA3
:103EC00003B05DF804FB00004FF4807370B51F4C25
:103ED000012023614FF400032361FCF70DFF8023D1
:103EE000C8202361FCF708FF19491A4800F0F4FACA
:103EF0000020194900F064FE0120184900F060FE1E
:103F00000220174900F05CFE1649032000F058FE1D
:103F1000002000F095FC002000F09AFC0024124ED6
:103F2000355D601C02342C4429463044A4B2FFF7AE
:103F3000A7FE4B2CF4D9002000F04CFB0120FFF72A
:103F4000B4FFBDE8704000F049BE00BF000C014066
:103F5000140000209C060020EB3D0008B53D000841
:103F6000393D0008233E0008A9760008414B2DE9A1
:103F7000F0431A68404FD2F844C03B689C450CD1CE
:103F80003E4B1B88834208D111B13D4B1B680B602F
:103F90003C4BB3F90000BDE8F08392F82D3053B1EB
:103FA000DC285AD012D8C42859D00BD8B02858D001
:103FB000B52808BFE6200024B2F834E0A146234625
:103FC00025461AE0D62808BF9920F4E7F6284AD0FB
:103FD000FC284AD0E42808BF8420ECE7D66B36F8EA
:103FE000148098FA98F818F4004F1FFA88F60AD04F
:103FF0004FF00109C6F30E050134A6B2B645EDD85F
:104000004FF0FF30C7E7B9F1000F20D08542F7D855
:10401000864215D303445B1B9BB2184CC7F800C003
:104020002080108E146C03FB004415480460906BD4
:10403000E8B1C05C134B18800029ACD00C60AAE733
:1040400001335B1B33444FF000099BB2D4E7864237
:10405000E3D0D5D801339BB2CEE79A20ABE78E20D0
:10406000A9E7F820A7E79420A5E78120A3E792F825
:104070002E00DFE72807002024070020200700206B
:104080001C07002018070020174B30B51B685A6C1E
:10409000824228D05864027802F07F0283F82C20F4
:1040A0000278D20983F82D20427883F82E20827876
:1040B00083F82F20B0F8032052BA5A8695B2B0F890
:1040C000052052BA9A8694B2B0F8072052BA1A86DE
:1040D000417A00F10A0209B111462A44C3E90E12DD
:1040E00002EB44021A6430BD280700202DE9F04F8E
:1040F0008B4D95B02E680193BDF8783089460593B5
:1041000096F8483013A9144696F868700393FFF7A1
:104110002DFFB0F1FF3F82464DD096F82E30002B98
:1041200000F09381DA085B071CBF134601330A9243
:1041300018BF0A9317F00203049340D096F82F306B
:1041400009F1FF32013B0244234421464846766E82
:104150001BB212B2B04707462B6893F82C30002BE5
:1041600040F02481A2B29B461C461E461D461FFA03
:1041700089F30C92029206931FFA89F21FFA8AF3CE
:104180000F93134410930C9A029B9B1A644A9BB2A0
:10419000126892F82F209A4200F2BE80049B53B11D
:1041A000BBF1000F00F0BE80039B002B40F0538159
:1041B00058460599B847504615B0BDE8F08F049FA2
:1041C000CAE7139BD04503F101021B7813920B93AE
:1041D00027DA08F108031BB20D93BDF908300E93DE
:1041E0000B9B13F0010F049B3DD0002B30D0BBF193
:1041F000000F23D0039B002B40F0298158460599DE
:10420000B8474FF0000B0134A4B20B9B5B080B9333
:1042100008F101030FFA83F80D9B434501D0C24515
:10422000DED1089B01330893BDF820300A9A9342EF
:10423000C7D3029B01339BB20293A4E7002CE0D1C9
:10424000039B002BDFD009EB0805029EADB2DAE735
:10425000334B019A1B680E991B6809EB08005B68D9
:1042600000B29847D1E7002B49D0002C3DD0039BEA
:10427000002B37D0069BA9450993BDF84030079322
:10428000A3EB05039BB21FD0A3421DD8079B5A1E68
:1042900012B2234933B2096828B24F6E19461192FF
:1042A000B847019907462046B847079B2C44E41AB3
:1042B0000136A4B2119AB6B2C4B1069B4B451CD0CC
:1042C0000F9B069DA342E4D994FBFAF31449079A85
:1042D00009683344013A4F6E1BB212B231B228B2B0
:1042E000B847074620460199B84709950BF10103E5
:1042F0000024099D1FFA83FB87E7069DE4E7039BE3
:10430000002B82D1064B059A1B68BDF908101B686B
:1043100009EB08005B68A3E700239846089383E74E
:1043200028070020002C3FF446AF039B002B3AD017
:104330001FFA89F81FFA8AFB0BEB0807BFB27B1B39
:10434000A9459BB21ED09C421CD37A1E12B244498E
:1043500033B2096828B2496E02928C461946E0478A
:10436000034620462C44E41B01990136A4B2984729
:10437000B6B2029A002C3FF41EAFC845454601D0A4
:10438000A345E4D994FBFAF33549334409687A1E0E
:104390001BB24F6E12B231B228B2B8470199034630
:1043A0002046984707E72046019903E7012B7FF451
:1043B00002AF9DF80430002602932DE018785A1CB5
:1043C0009DF81430C0F5807C0CFB03F31392029A25
:1043D00000FB0233019AC3F3072302F47F41059ADD
:1043E00002F47F420CFB02F200FB0122121202F4E3
:1043F0007F421A43049BE3B111460120B8470135BF
:104400005545139BDADB164A0136126892F82E20C6
:10441000A2EB0A0213441393DFF844B01FFA86F8A4
:10442000DBF8003093F82F3043457FF6C4AE00250B
:10443000E6E7DBF8003008EB04011B6805EB090038
:104440005B6809B200B29847D9E79A46B3E6002CF8
:104450003FF4F9AED7E6002C3FF4ADAE68E700BFFD
:104460002807002010B50368014693F9002018784A
:10447000002A2EDB01330B6010BD01340C60F2B951
:10448000DF2B07D8012203F01F000C682378002BD4
:10449000F3D1F1E7EF2B03D8022203F00F00F4E78A
:1044A000F72B03D8032203F00700EEE7FB2B95BFA1
:1044B0000422052203F0030003F00100E5E703F006
:1044C0003F03013A43EA801312F0FF0298B2DCD1B5
:1044D000D2E700200246D8E74FF004120346C2613B
:1044E00001604A8808884FF6FF71053A12B25A8473
:1044F0005A830538002200B218841883D964012039
:1045000045F65D41C3E90E22C3E91022C3E9032247
:104510009A62DA851A639A865A615A6583F8582036
:10452000DA6583F860205A6683F86820DA6683F8D3
:104530007020044A83F8490083F84A00A3F8501019
:104540001360704728070020014B1B689862704772
:104550002807002082422DE9F3471C46A8BF1346D6
:1045600017460646A4BF07461E468C42A8BF2346F0
:10457000DFF85CA00D46A8BF1D46DAF80030A8BFE2
:104580000C4693F86020BDF8289092071CD5CDF812
:104590000090D3F85C8032462B4621463846C0470F
:1045A00090B902B0BDE8F087DAF8003040461B68E9
:1045B0004A4621465B68984708F101080FFA88F8D7
:1045C0004645F1DA013424B2A542EADBB846F7E702
:1045D0002807002007B50021074B1B681A6853887D
:1045E0001288013B013A00901BB2084612B2FFF755
:1045F000B1FF03B05DF804FB28070020024B1B68E5
:104600001B685B68184700BF280700202DE9F04FA2
:10461000DFF80CA187B0DAF800C004469CF858E037
:104620000D461EF0020F16461F46BDF840804AD1C7
:10463000321B12B2002AA7EB050382EAE277A7EB4E
:10464000E277CCBF01224FF0FF321BB283EAE37660
:10465000002BA6EBE376DAF80030B9B21B680391C1
:10466000B1B2049105922946424620465B683FB2AA
:1046700036B2D4BF4FF0FF394FF001099847B74227
:104680002BDA4FF0000ADFF898B077100FFA8AF3B0
:104690009E421FDD039B1F44BBB23FB2BE4205DCFE
:1046A000049A9B1A1FB2059B1C4424B2DBF800300D
:1046B0004D441B682DB24246294620465B68984708
:1046C0000AF1010AE2E7CDF80080DCF85490C8470F
:1046D0000028ADD107B0BDE8F08F4FF0000ADFF839
:1046E00040B07E100FFA8AF39F42F3DD049B1E4414
:1046F000B3B236B2B74204DC039A4D449B1A1EB2E1
:104700002DB2059B42461C44DBF8003024B21B68E6
:10471000294620465B6898470AF1010AE2E700BF94
:10472000280700202DE9F3411C46804616460D4619
:10473000BDF820700B460097FFF768FF234632460E
:10474000214640460097FFF761FF2346424629462F
:1047500040460097FFF75AFF234632462946304627
:10476000089702B0BDE8F041FFF750BF2DE9FF47C1
:104770008046DFF8A8900F46D9F800300392986A77
:10478000FFF782FC4646039BD9F800401D786DB9BF
:1047900094F868309B0706D54FF0FF33646E1A46D5
:1047A00019461846A04704B0BDE8F08794F82D20BC
:1047B0004AB903A8FFF756FE05460A2D06D123681D
:1047C000B3F90060DFE701330393F6E700212846E1
:1047D000FFF7CCFBB0F1FF3F8246D4D02368B3F99A
:1047E000002033189A4207DC464694F82F3094F99B
:1047F0004A2013443B441FB2B4F84E20B4F84C3066
:104800003146009228463A46FFF770FCD9F800304E
:1048100093F94930534433441EB2B4E728070020CB
:10482000024B1B68A3F84C00704700BF280700200C
:10483000024B1B68A3F84E00704700BF28070020FA
:10484000024B1B6883F84900704700BF280700200F
:10485000024B1B6883F84A00704700BF28070020FE
:104860002DE9F04F0446406889B0002800F0A1808F
:104870002368002B00F09D80B4F90E60B4F90A5053
:1048800090F802A0721B5245C0F29380B4F90C203C
:10489000CDE906330492B4F91820B4F9088094F8ED
:1048A0001490B4F916700392FFF7EEFB0123DFF8C2
:1048B00008B1DBF8002092F82D2052B907A8059323
:1048C000FFF7D0FD059B48B10A28F2D101339BB216
:1048D000EFE7079A511C10780791F4E719F0300FB1
:1048E000ADB20ED00136761B03FB1A66039A013B6C
:1048F00003FB126630B200285BDB19F0100F18BF03
:104900004010049B1FFA88F80133BFB2A3EB0803E1
:104910000544FB182DB204930026069B0793DBF891
:10492000002092F82D2072B907A8FFF79BFD78B1FF
:104930000A280DD00021FFF719FB421CEFD0F31914
:1049400003449EB2EBE7079A511C10780791EEE7FB
:10495000049B991B09B200292BDB19F0010F1CD114
:1049600019F0020F00D0491041440EB2DBF80030BC
:1049700093F82D309BB906A8FFF774FDC8B10A283B
:1049800012D0638A2A460093238A3146FFF7AEFB92
:10499000431CEBD0B9190144E7E70021E4E7069B8B
:1049A0005A1C18780692E9E7039B53442B441DB226
:1049B000B2E709B0BDE8F08F280700202DE9F041EB
:1049C00004468AB000285ED0037A9A075BD5837DBF
:1049D000B0F90E50DB07B0F91080B0F9126007D5BE
:1049E000033508F10308033E2DB20FFA88F836B2FA
:1049F000264B1FFA88F71B6841461B6928469C42D4
:104A00000BBFE38C638DADF81E30ADF81E300CBFCC
:104A1000A38C238DBDF81E20ADF81C3094F82C30EB
:104A20000092013B3B4432461BB2FFF793FDA36962
:104A300003A80393E369ADF816800493EB1CADF86B
:104A4000143094F82C30ADF81860013B3B44ADF8BD
:104A50001A3094F822308DF8203094F92030ADF8D7
:104A6000223094F92130ADF82430FFF7F9FE49F6F1
:104A7000135294F82C3028463B441BB2009219463E
:104A80003246FFF7C3FD0AB0BDE8F08128070020D9
:104A90002DE9F04F0E469B460446904687B093B2F0
:104AA000109D03F1FF3903930FFA89F302932B88CA
:104AB000029A00930B46FFF7A9FD1FFA86F91FFA29
:104AC0008BF3049309F1010703F1FF3A6B883FB2BE
:104AD0000FFA8AFA22463946204600935346FFF7DA
:104AE00095FDAB8842465946204600935B46FFF74A
:104AF0008DFDEB8842463146404600935346FFF712
:104B000085FDA3B20593581C039B04B2A3F10208D0
:104B10002B890FFA88F842463946204600933B46D7
:104B2000FFF774FD049B09F10206A3F1020B6B89E8
:104B300036B20FFA8BFB22463146204600935B4685
:104B4000FFF764FDAB8951462046029A0093534615
:104B5000FFF75CFDEB89029A3946104600935B46ED
:104B6000FFF754FD059B31469C1C039B24B2DA1EC3
:104B70002B8A2046009312B23346FFF747FD049B71
:104B800009F10301DF1E6B8A3FB2224620460093E3
:104B900009B23B46FFF73AFDAB8A424659462046EA
:104BA00000935B46FFF732FDEB8A42461093314695
:104BB0003B46404607B0BDE8F04FFFF727BD000079
:104BC000032807D8044B1B6803EBC000032341658F
:104BD00080F85830704700BF280700202DE9F347C0
:104BE000A34D2A6892F85230DF0744BF23F0010337
:104BF00082F85230D2E90330834223D013B3C2E9A2
:104C00000430B8B1827D960714D5027A140711D505
:104C1000B0F90E10B3F90E20914209D101691A6959
:104C2000914205D1B0F91420B3F914309A4201D061
:104C3000FFF7C4FE2B681A69137A23F0400343F090
:104C4000280313722A68146944B92B681B689B688F
:104C5000002B40F0098102B0BDE8F087237A980666
:104C600054D523F0200121721907B4F90E80B4F94C
:104C70001070B4F91290B4F914A040F18380A27DB1
:104C8000D60717D5580615D47A4B4A4639464046BA
:104C900000935346FFF7FCFE08F103080337A9F120
:104CA0000309AAF1030A0FFA88F83FB20FFA89F94B
:104CB0000FFA8AFAA37D99070AD52046FFF77EFEF0
:104CC000237A94F82C605A061DD401363E4437B23C
:104CD000A3894A460093394653464046FFF73AFCBB
:104CE0000022267893B29E4210D960685101435C3D
:104CF00003F00307022F04D11F0744BF43F06003F2
:104D000043540132EEE723F040032372237A1B075A
:104D10009BD500202B6894F80080B3F90660B3F9A6
:104D2000087093F804C083B2984535D80026B3B212
:104D3000984577D800260223B2464F4F7E603B70DD
:104D400094F80090B3B299457FF67FAF6268730123
:104D5000D35C02EB461803F00303022B10D198F842
:104D60001A306BB198F81820FB707A7098F81920F7
:104D70003846236BC7F80480BA70984788F81AA0A1
:104D80000136DFE7B2F85030414600934A465346B9
:104D90004046FFF7DFFBB9E7D4F804E042011EF814
:104DA00002200EEB401102F04B020A2A4B7829D167
:104DB00003F04002BCF1000F27D0B6F1FF3F24D032
:104DC0001AB903F0E70343F00503B1F908E003F073
:104DD000DF02B64514DCB1F90CE0B64510DBB1F9E1
:104DE0000AE0BE450CDCB1F90EE0BE4508DB13F06D
:104DF000400F0ABF03F0DB0242F0200242F0220221
:104E000042F040034B7001308DE7002AFAD09A0639
:104E10004CBF43F0080343F0100303F0B90343F021
:104E20000103EFE76268730112F8039002EB461783
:104E300009F00303022B97F801A013D119F0200FFA
:104E400003D0394620467B68984719F0080F09D0EF
:104E500019F0800F06D01AF0410F03D039462046D2
:104E60007B689847013662E702B0BDE8F047184713
:104E700028070020B2F90008100700204FF0FF3289
:104E800000F10803C0E902234360036100230360CB
:104E9000704700230361704730B50C68631C0AD16A
:104EA00003695A684A6091608B60596003680861C1
:104EB0000133036030BD00F10802134652681568E3
:104EC000A542FAD9EDE70369D0E901128A60516081
:104ED0005968814208BF5A60002202611A68013A8B
:104EE0001A6018687047000006480068006880F380
:104EF000088862B661B6BFF34F8FBFF36F8F00DFD4
:104F000000BF000008ED00E0002382B001930D4BCC
:104F10001B68013308D04FF0500383F31188BFF3AF
:104F20006F8FBFF34F8FFEE74FF0500383F311886D
:104F3000BFF36F8FBFF34F8F019B002BFCD002B0EC
:104F4000704700BF3C0000204FF0807340F8043CE5
:104F5000054B21F0010140F8081C40F80C3C40F8DA
:104F6000202C4038704700BF094F000800000000A7
:104F7000074B19680868B0E8F00F80F30988BFF3A1
:104F80006F8F4FF0000080F311884EF00D0E7047C8
:104F9000742000204FF0500383F31188BFF36F8F0C
:104FA000BFF34F8F0A4A13680133012B13600ED1F0
:104FB0004FF0E023D3F8043DDBB243B14FF0500390
:104FC00083F31188BFF36F8FBFF34F8FFEE77047F6
:104FD0003C000020084A136843B94FF0500383F3A4
:104FE0001188BFF36F8FBFF34F8FFEE7013B136054
:104FF0000BB983F3118870473C00002000000000CB
:10500000EFF30980BFF36F8F0D4B1A6820E9F00FA3
:1050100010602DE908404FF0500080F3118800F037
:1050200065FD4FF0000080F31188BDE80840196865
:105030000868B0E8F00F80F30988BFF36F8F7047FE
:105040007420002008B54FF0500383F31188BFF39C
:105050006F8FBFF34F8F00F0D1FB28B14FF0E023EB
:105060004FF08052C3F8042D002383F3118808BD4C
:105070004FF0E02200234FF47A7113619361044BE7
:105080001B68B3FBF1F3013B5361072313617047C6
:105090000000002013B5274B1A78D2B20192FF22EC
:1050A0001A701B78244ADBB28DF803309DF8033068
:1050B00003F0500313700723204A13609DF8031078
:1050C000136809060AD4032B11D04FF0500383F361
:1050D0001188BFF36F8FBFF34F8FFEE7013B136063
:1050E0009DF803305B00DBB28DF80330E6E74FF448
:1050F00040731360019B0F4ADBB213704FF0E02343
:105100000024D3F8202D42F47002C3F8202DD3F8E8
:10511000202D42F07042C3F8202DFFF7A9FF084B65
:105120001C60FFF7E1FE00F0E1FC2046FFF7ECFE1B
:1051300002B010BD00E400E0300700202C07002082
:105140003C00002010B5104B1A461B688342FBD36D
:1051500054681119884201BF41681046091951600D
:10516000446801198B420CD1084909688B4203D06D
:1051700059682144416019689042016018BF10606D
:1051800010BD1946F8E700BF48070020440700207B
:10519000F8B5044600F02AFB3F490B68F3B93F4AD3
:1051A0003F4D50071FBFD01D20F0070002F5C05231
:1051B000131A0CBF4FF4C053024600201344083B9F
:1051C00023F0070368602A60C3E90000981AC2E967
:1051D00000300B60334B1860334B1860002C4AD002
:1051E00004F00703A3F11102A24251D304F1100EFF
:1051F000AEEB030CBCF1000F4ADD2B4F3E68664559
:1052000046D3274A15686868604501D22C68BCB946
:105210000968A9423CD0A3EB0E0329680344102B74
:105220001468116014D905EB0C0042070BD04FF045
:10523000500383F31188BFF36F8FBFF34F8FFEE7E7
:105240002A462546DFE74360C5F804C0FFF77AFF2A
:1052500000236A681349B61A42F000426A60134A92
:1052600008682B601368864203F101033E6038BF73
:105270000E600834136000F077FB63070AD04FF02C
:10528000500383F31188BFF36F8FBFF34F8FFEE797
:105290000024F0E72046F8BD440700205007002016
:1052A000480700203C070020400700203807002066
:1052B00010B5044680B350F8043C002B08DB4FF0D7
:1052C000500383F31188BFF36F8FBFF34F8FFEE757
:1052D00050F8082C42B14FF0500383F31188BFF30C
:1052E0006F8FBFF34F8FFEE723F0004340F8043C7D
:1052F00000F07CFA094A54F8043C1168A4F1080053
:105300000B441360FFF71EFFBDE81040044A13680A
:105310000133136000F028BB10BD00BF4007002020
:10532000340700202DE9F0410446FFF733FE334BEC
:10533000334E1A68334F01321A603568002D52D14E
:1053400034601B68012B1FD1B84640460135FFF77A
:1053500095FD072D08F11408F7D1DFF8AC802B4D2F
:105360004046FFF78BFD2846FFF788FD2848FFF7EA
:1053700085FD2848FFF782FD2748FFF77FFD274B73
:10538000C3F80080264B1D60264A27491368086829
:10539000013313600122E36A9A4002430A60142237
:1053A0005343F9184A68201D9568A260E56068605B
:1053B0009060FA5861610132FA50FFF70BFE1B4B07
:1053C0001B6873B13368DA6AE36A9A4209D24FF014
:1053D000E0234FF08052C3F8042DBFF34F8FBFF38B
:1053E0006F8FBDE8F081114B1A68E36A002ACBD1B8
:1053F0003268D26A9A4298BF3460C5E7741F0020B1
:1054000074200020E81F0020D41F0020C01F0020AF
:10541000A41F0020901F0020781F0020BC1F002028
:10542000B81F0020581F00206C1F0020681F00209C
:10543000F8B5204B204C06461D6820680F46043006
:10544000FFF741FD40B922681C49D06A01220B6870
:10545000824023EA02030B60731C13D197B1184BEF
:1054600021685A688A6090682168C86021680431A0
:105470004160216804319160226853611A680132E9
:105480001A60F8BD2368AD195D6007D30D4B18682D
:105490002168BDE8F8400431FFF7FEBC0A4B1868EC
:1054A00021680431FFF7F8FC084B1A68AA4288BF4C
:1054B0001D60E6E7701F0020742000206C1F002094
:1054C000781F0020B81F0020BC1F0020541F0020A0
:1054D000064A13681968064B19B94FF0FF321A6073
:1054E00070471268D2681268F9E700BFBC1F00203D
:1054F000541F002010B504460E4B1868503000F0C1
:105500005DFF94F895313BB9206BFFF7D1FE204643
:10551000BDE81040FFF7CCBE012BF8D0022B08D01D
:105520004FF0500383F31188BFF36F8FBFF34F8F9A
:10553000FEE710BD7420002080B5134C134F144DAE
:10554000236873B9134B1B68012BF8D94FF0E02384
:105550004FF08052C3F8042DBFF34F8FBFF36F8F0E
:10556000EDE7FFF717FDFB68DE68301DFFF7ABFCCA
:105570002B68013B2B602368013B2360FFF72AFD6A
:105580003046FFF7B7FFDBE78C1F0020901F00209D
:10559000741F0020E81F00202DE9F0470A9C0646F2
:1055A000DDE908A815461F46D4F8309069B14B1EB6
:1055B00004F133020F3113F8010F02F8010F08B1A3
:1055C0008B42F8D1002384F84330BAF1060F08D992
:1055D0004FF0500383F31188BFF36F8FBFF34F8FEA
:1055E000FEE7201DC4F82CA0C4F844A0FFF751FC2E
:1055F00004F11800FFF74DFCCAF107034FF4A07245
:105600000021A3612461646204F1500000F03DFEBA
:10561000134B05F1804503F168026365D033A26541
:10562000E36501220023C4E93A230E4A0E4B013DF3
:10563000C4E93C230D4B09EB8500C4F8F8300B237B
:105640003A463146A4F8FC3020F00700FFF77CFC16
:105650002060B8F1000F01D0C8F80040BDE8F08725
:10566000CC3F00200E33CDAB34126DE6ECDE0500EE
:105670002DE9F04387B00546DDE90F940E46174645
:105680009846B9F1000F08D14FF0500383F3118809
:10569000BFF36F8FBFF34F8FFEE744B94FF0500356
:1056A00083F31188BFF36F8FBFF34F8FFEE74FF483
:1056B000CC730593059A9A4208D04FF0500383F3B8
:1056C0001188BFF36F8FBFF34F8FFEE70021204695
:1056D000059B00F0DAFD022384F8953104ABC4F891
:1056E000309001930E9B3A4631462846009302942F
:1056F0004346FFF751FF2046FFF714FE049807B01A
:10570000BDE8F0832DE9F043074685B09000884658
:1057100016469946FFF73CFD054620B94FF0FF308D
:1057200005B0BDE8F0834FF4CC70FFF731FD0446BF
:10573000A8B14FF4CC72002100F0A7FD0D9B2563AA
:1057400001930C9B324641463846009302944B46E7
:10575000FFF722FF2046FFF7E5FD0120E0E728469E
:10576000FFF7A6FDDAE7000010B5002488B007AA0D
:1057700006A905A8CDE90544FDF7C6FE059B079AD5
:105780000293069B1149CDE9004311482346FFF7D8
:105790006FFFB8B14FF0500383F31188BFF36F8FE1
:1057A000BFF34F8F0B4B0C4A1B68503313604FF005
:1057B000FF320A4B1A600122094B1A60094B1C6028
:1057C000FFF768FC084B1B6808B010BD397500086E
:1057D00039550008742000204C000020541F002080
:1057E000681F0020701F0020CCF90008024A1368CF
:1057F00001331360704700BF501F00202DE9F84FA0
:105800004E4B1B68002B40F092804D4B1C680134BE
:105810001C60BCB94B4B1A68126842B14FF0500380
:1058200083F31188BFF36F8FBFF34F8FFEE7464AB4
:105830001968106818601160444A136801331360D6
:10584000FFF746FEDFF808C10020DCF80030414ACF
:105850009C42DFF804910FD21421D9F80030DB6AA2
:105860004B43D358022B3D4B28BF01201B68002B14
:1058700018BF0120BDE8F88FDFF8C880DFF8E0E04E
:10588000D8F800301B6823B94FF0FF33CCF8003054
:10589000E2E7D8F80030DB68DB6859688C4202D256
:1058A000CCF80010D8E75D69D3E902168E6071600C
:1058B00069681F1DB9424FF0000108BF6E60596151
:1058C0002968013929609D6A7DB1D3E907168E6088
:1058D0007160696803F1180A51454FF0000108BF73
:1058E0006E6099622968013929600125D96ADEF85C
:1058F00000608D403543CEF8005014254D4302EB37
:10590000050ADAF80460D6F808B09E60C3F80CB057
:10591000CBF80470B760C3F814A053590133535146
:10592000D9F80030DB6A994288BF0120A8E70D4A08
:1059300000201368013313609CE700BF501F002054
:10594000701F0020BC1F0020B81F00205C1F00201B
:10595000541F0020E81F002074200020601F00203A
:105960006C1F0020641F00202DE9F84F454C236870
:1059700043B94FF0500383F31188BFF36F8FBFF328
:105980004F8FFEE7FFF706FB2368013B2360236888
:105990002BB10024FFF71EFB2046BDE8F88F3A4AE2
:1059A0001268002AF5D04FF0010C4FF0140E374E5C
:1059B000374F384ADFF8E080DFF8E0903FE0F368E7
:1059C000DB68986AD3E907148C606160416803F171
:1059D0001805A9424FF0000108BF446099620168B0
:1059E000013901605869D3E902148C606160416833
:1059F0001D1DA942016808BF446001390160D96AD0
:105A00003C680CFA01F0204338600EFB01F002EB19
:105A1000000ADAF80440D4F808B09C60C3F80CB06F
:105A2000CBF80450A5601458C3F814A001341450E6
:105A3000D8F80000C06A814201D3C9F800C03168BB
:105A40000029BCD10BB1FFF743FD154D2C6844B1C3
:105A50000127124EFFF7D2FE00B13760013CF9D1A9
:105A60002C600E4B1B68002B93D04FF0E0234FF0BF
:105A70008052C3F8042DBFF34F8FBFF36F8F012403
:105A800088E700BF501F0020741F0020A41F0020C3
:105A90006C1F0020E81F002074200020601F0020E1
:105AA000641F002008B550B94FF0E0234FF080523A
:105AB000C3F8042DBFF34F8FBFF36F8F08BD0A4BA0
:105AC000196841B14FF0500383F31188BFF36F8F12
:105AD000BFF34F8FFEE7FFF789FEFFF7A9FCFFF743
